:030000000208AE45
:0C08AE00787FE4F6D8FD75810C02085834
:0A08BA0048454C4C4F2054564D00A9
:100858007F381208A07F011208A07F061208A07F27
:100868000C1208A07F801208A07BFF7A0879BA12C0
:04087800082D80FEC9
:0E08A00075A0048FB0E4F5A07F0AFE02087C6C
:0F08910075A0058FB075A0017F0A7E0002087C5C
:06082D008B088A09890A0C
:10083300E4F50BF50CAB08AA09A90A850C82850B14
:1008430083120800FF600D120891050CE50C70E59A
:04085300050B80E130
:01085700227E
:10087C00D3EF9400EE9400400B7DFADDFEEF1F7079
:04088C00EF1E80ECEF
:010890002245
:10080000BB010CE58229F582E5833AF583E02250AD
:1008100006E92582F8E622BBFE06E92582F8E222F7
:0D082000E58229F582E5833AF583E4932211
:00000001FF
